:03000000021DBB23
:101DBB0078FFE4F6D8FD9000007FFF7E00E4F0A3EF
:101DCB00DFFCDEFA750800750900758120021E160E
:1022380012000A780A7601780E088683088682A337
:10224800E0F8A3E0F988838982E0FD7821A308E01B
:10225800F6DDFA8881A3E0F508A3E0F509D0E0FFF0
:10226800D0E0FED0E0FDD0E0FCD0E0FBD0E0FAD03A
:10227800E0F9D0E0F8D083D082D0F0D0E0D0D0D24E
:02228800AF3273
:10206500C0D0C0E0C0F0C082C083E8C0E0E9C0E0F5
:10207500EAC0E0EBC0E0ECC0E0EDC0E0EEC0E0EFB0
:10208500C0E0E581C39421FD780B0886830886822C
:10209500A3E0F8A3E0F988838982EDF07821A3080D
:1020A500E6F0DDFAA3E508F0A3E509F012000A78E9
:1020B5000B790EE7F60809E7F60809E7F6781579CA
:0620C50016E7F602223FBF
:0A256500E581C39404F5810220878C
:03000B0002212FA0
:10212F00C2AFC0D0C0E0C0F0C082C083E8C0E0E959
:10213F00C0E0EAC0E0EBC0E0ECC0E0EDC0E0EEC014
:10214F00E0EFC0E0122528C28C758C70758A0012E2
:10215F001182D28C121BCAD0E0FFD0E0FED0E0FD7E
:10216F00D0E0FCD0E0FBD0E0FAD0E0F9D0E0F8D03E
:0C217F0083D082D0F0D0E0D0D0D2AF32BC
:030023000221E2D5
:1021E200C2AFC0D0C0E0C0F0C082C083E8C0E0E9A6
:1021F200C0E0EAC0E0EBC0E0ECC0E0EDC0E0EEC061
:10220200E0EFC0E0122528C2AC12103FD2AC121B84
:10221200CAD0E0FFD0E0FED0E0FDD0E0FCD0E0FB91
:10222200D0E0FAD0E0F9D0E0F8D083D082D0F0D07C
:06223200E0D0D0D2AF3273
:1009D10090FFFD1203F2EBF0A3EAF0A3E9F090FF20
:0409E100FD1203F20E
:1009E500900006120416E0FBA3E0FAA3E0F99000DC
:1009F50006120416EBF0A3EAF0A3E9F090000C123E
:100A05000416E0FEA3E0FF90000C120416EEF0A31E
:100A1500EFF0900009120416E0F9A3E0FAA3E085CF
:100A25000883850982C9F0A3EAF0A3E9F085088364
:100A3500850982E0FBA3E475F0011200B6A9F0FA7E
:100A4500740F12006C900003120416A3A3E0FF8537
:100A55000883850982E0FBA3E475F0011200B6A9BD
:100A6500F0FAEF12006C900003120416A3E0FAEA04
:100A7500FF850883850982E0FBA3E475F001120078
:100A8500B6A9F0FAEF12006C850883850982E0FBB0
:100A9500A3E475F0011200B6A9F0FAE412006C8522
:100AA5000883850982E0FBA3E475F0011200B6A96D
:100AB500F0FA740A12006C850883850982E0FBA3AD
:100AC500E475F0011200B6A9F0FA740B12006C85FA
:100AD5000883850982E0FBA3E475F0011200B6A93D
:100AE500F0FAE412006C850883850982E0FBA3E433
:100AF50075F0011200B6A9F0FAE412006C850883BE
:100B0500850982E0FBA3E475F0011200B6A9F0FAAD
:100B1500E412006C850883850982E0FBA3E475F087
:100B2500011200B6A9F0FA740112006C85088385DC
:100B35000982E0FBA3E475F0011200B6A9F0FA748E
:100B45000212006C850883850982E0FBA3E475F039
:100B5500011200B6A9F0FA740312006C85088385AA
:100B65000982E0FBA3E475F0011200B6A9F0FA745E
:100B75000412006C850883850982E0FBA3E475F007
:100B8500011200B6A9F0FA740512006C8508838578
:100B95000982E0FBA3E475F0011200B6A9F0FA742E
:100BA5000612006C850883850982E0FBA3E475F0D5
:100BB500011200B6A9F0FA740712006C9000091230
:100BC5000416A3E0FAA3E02400EA3404FF850883B1
:100BD500850982E0FBA3E475F0011200B6A9F0FADD
:100BE500EF12006C900009120416A3A3E02400F98B
:100BF500AF01850883850982E0FBA3E475F0011246
:100C050000B6A9F0FAEF12006C900009120416E084
:070C1500FBA3E0FAA3E0F9E4
:060C1C0090000E0203F23D
:0100080022D5
:0100090022D4
:1023920090FFFD1203F2EBF0A3EAF0A3E9F0850847
:1023A20083850982E0F9A3E0FAA3E0850883850921
:0F23B20082C9F0A3EAF0A3E9F09000030203F25E
:1023C10090FFFD1203F2EBF0A3EAF0A3E9F0850818
:1023D10083850982E0F9A3E0FAA3E08508838509F2
:0F23E10082C9F0A3EAF0A3E9F09000030203F22F
:01000A0022D3
:012578002240
:1023F00090FFFD1203F2EBF0A3EAF0A3E9F08508E9
:1024000083850982E0F9A3E0FAA3E08508838509C2
:0F24100082C9F0A3EAF0A3E9F09000030203F2FF
:01257900223F
:01257A00223E
:102515005389F0438901758C70E4F58AC2AFC2A96D
:03252500D28C2233
:1012A900480A9801020408102040806100093600AC
:1012B9000001000200010003000100020001000416
:1012C9000001000200010003000100020001000505
:1012D90000010002000100030001000200010004F6
:1012E90000010002000100030001000200010006E4
:1012F90000010002000100030001000200010004D6
:1013090000010002000100030001000200010005C4
:1013190000010002000100030001000200010004B5
:1013290000010002000100030001000200010007A2
:101339000001000200010003000100020001000495
:101349000001000200010003000100020001000584
:101359000001000200010003000100020001000475
:101369000001000200010003000100020001000663
:101379000001000200010003000100020001000455
:101389000001000200010003000100020001000544
:101399000001000200010003000100020001000435
:0F13A9000001000200010003000100020001002A
:10000E0012000812241F12228A121C70121D1612C0
:05001E0024A502000909
:10252800780AE6B4010C900A36E0C394FF5003E041
:0325380004F0228A
:101BCA00780AE664016003021C6FC2AF900A36E02D
:101BDA00D394004003E014F0900A36E06003021C3C
:101BEA006D90080FE0707C90080EE02436F582E4D0
:101BFA003409F583E0900A62F0E0FF24A0F582E45C
:101C0A00340CF583E02436F582E43409F583E0FEEA
:101C1A00EF33333354F8FFEE2FFF7816F618E66FDA
:101C2A00604108E675F003A4243BF582E4340AF522
:101C3A0083E0FBA3E0FAA3E0780EA60308A6020855
:101C4A00F6900A63E0FCA3E0FDA3E0FEA3E0240112
:101C5A00FFE43EFEE43DFDE43CFC900A631202C44C
:061C6A00122565D2AF2235
:061F6C0090FFFE1203F2DB
:101F7200780AE6707190080EE02436F582E434099E
:101F8200F583E0850883850982F0E0FF24A0F582CD
:101F9200E4340CF583E02436F582E43409F583E079
:101FA200850883850982A3F0EF33333354F8FF8524
:101FB2000883850982A3E02F7816F618F675F003D8
:101FC200A4243BF582E4340AF583E0FBA3E0FAA300
:101FD200E0780EA60308A60208F6780BA60308A668
:061FE2000208F61222388D
:061FE8009000020203F26A
:0611820090FFFD1203F2D4
:10118800122579C2AF900A37E0FCA3E0FDA3E0FE88
:10119800A3E02401FFE43EFEE43DFDE43CFC900AAC
:1011A800371202C4D2AF780AE6640160030212A3C0
:1011B800900810E0F9A3E0FAA3E085088385098286
:1011C800C9F0A3EAF0A3E9F0850883850982E0FB6A
:1011D800A3E0FAA3E0F990001212003F640C700338
:1011E8000212A3C2AF90000F1200CC45F0700302A8
:1011F800127C850883850982E0FBA3E0FAA3E0F965
:1012080090000F74FFF5F012010445F0706690002D
:101218001112003F20E34590080EE0FF90001612DF
:10122800003FFEEF4E90080EF090001412003F248D
:10123800A0F582E4340CF583C083C082E0FF850802
:1012480083850982E0FBA3E0FAA3E0F99000151278
:10125800003FFEEF4ED082D083F08018850883854A
:101268000982E0FBA3E0FAA3E0F990000FE475F02F
:1012780001120151850883850982E0FBA3E0FAA3E6
:10128800E0F9900003120369850883850982EBF071
:0B129800A3EAF0A3E9F0D2AF0211D0EE
:0612A3009000030203F2BB
:050003007E007FFC22DD
:01257B00223D
:0B0EE3009010C2EBF0A3EAF0A3E9F0CE
:100EEE009010C2E0FBA3E0FAA3E0F990000112001B
:100EFE003F2436F582E43409F583E0FD2498F5822B
:100F0E00E4340AF583E09010CDF0E92407F9E43AD1
:100F1E00FAED7E0029F9EE3AFA1200262436F58211
:100F2E00E43409F583E0FF2498F582E4340AF5836E
:100F3E00E09010CCF0ED33333354F82FFC12002632
:100F4E00FF9010CCE0F45F12006C701D9010C2E0A8
:100F5E00FBA3E0FAA3E02401F9E43AFA120026FF1B
:100F6E009010CDE0F45F12006CEC75F003A4243BFE
:100F7E00F582E4340AF583E0FBA3E0FAA3E0F990EE
:100F8E0010C9EBF0A3EAF0A3E9F090000FE4F5F03E
:100F9E001201517B007A007900C003C002C001909B
:100FAE0010C9E0FBA3E0FAA3E0F99000091203993F
:100FBE009010C5E0FBA3E0FAA3E0F9C003C002C0A5
:100FCE00019010C9E0FBA3E0FAA3E0F990000C1227
:100FDE0003999010C9E0FBA3E0FAA3E02411F9E411
:100FEE003AFA120026FF9010C8E0F45F12006C90DF
:100FFE0010C9E0FBA3E0FAA3E0F990001112003F44
:10100E00702C90080EE0FF9010CDE0FEEF4E900891
:10101E000EF074A02DF582E4340CF583C083C082EB
:10102E00E0FF9010CCE0FEEF4ED082D083F0AF0404
:01103E00228F
:1014B7009010F4EBF0A3EAF0A3E9F09010F4E0FB4E
:1014C700A3E0FAA3E0F9C003C002C001780B8603CA
:1014D70008E6FA08E6F9900009120399780B8603E3
:1014E70008E6FA08E6F990001412003F24A0F582F6
:1014F700E4340CF583C083C082E0FF780B860308D1
:10150700E6FA08E6F990001512003FF4FEEF5ED008
:1015170082D083F0701390080EE0FF90001612003F
:101527003FF4FEEF5E90080EF0780B860308E6FAAC
:1015370008E6F990001412003FFF7E009010F4E0D7
:10154700FBA3E0FAA3E02407F9E43AFAE92FF9EE5E
:101557003AFAC003C002C001120026FF780B8603C7
:1015670008E6FA08E6F990001512003F4FD001D0BF
:1015770002D00312006C9010F4E0FBA3E0FAA3E0A2
:101587002401F9E43AFAC003C002C001120026FFA1
:10159700780B860308E6FA08E6F990001612003F72
:0A15A7004FD001D002D00302006C07
:1019AE009010F7EBF0A3EAF0A3E9F0780B860308AA
:1019BE00E6FA08E6F990001412003FFF7E00901040
:1019CE00F7E0FBA3E0FAA3E02407F9E43AFAE92FE3
:1019DE00F9EE3AFAC003C002C001120026FF780BDE
:1019EE00860308E6FA08E6F990001512003FF45F48
:1019FE00D001D002D00312006C70359010F7E0FBCE
:101A0E00A3E0FAA3E02401F9E43AFAC003C002C04D
:101A1E0001120026FF780B860308E6FA08E6F99015
:101A2E00001612003FF45FD001D002D00312006CFA
:101A3E00780B860308E6FA08E6F9900011E4120026
:101A4E007E7B007A007900C003C002C001780B864D
:0E1A5E000308E6FA08E6F9900009120399223F
:10231A00900001E412007EE92407F9E43AFA9010E9
:10232A00FAEBF0A3EAF0A3E9F09010FAE0FBA3E4D9
:10233A0075F0011200B6A9F0FAE412006C9010FAD6
:10234A00E0FBA3E475F0011200B6A9F0FAE402007A
:01235A006C16
:101D16009010A27401F0A3740AF0A37467F0A37480
:101D260001F0A3740AF0A37470F0E4FFFE9010A211
:101D3600E0FBA3E0FAA3E0F9E412006C9010A5E042
:101D4600FBA3E0FAA3E0F9C003C002C0019010A211
:101D5600E0FBA3E0FAA3E0F99000041203999010C7
:101D6600A3E475F0091200A09010A6E475F009121C
:101D760000A00FBF00010EEF64044E70B09010A2D9
:101D8600E0FBA3E0FAA3E0F9E412006CFBFAF9C069
:101D960003C002C0019010A2E0FBA3E0FAA3E0F9A1
:101DA600900004120399900A947401F0A3740AF047
:041DB600A37467F0BB
:011DBA002206
:10241F00900A371202E900000000E4900A36F090AB
:10242F00080FF0900A97F0780AF6900A631202E903
:0E243F000000000078111202D0000000002200
:10228A00E490080EF09010A204F0A3740CF0A3746A
:10229A00A0F0E4FFFE9010A2E0FBA3E475F00112A7
:1022AA0000B6A9F0FAE412006C0FBF00010EEF6449
:1022BA00024E70E1E47815F608F6780EF608F6088C
:0822CA00F6780BF608F608F6A1
:0122D20022E9
:1024A5009010A5E4F0A3F0A3F0A304F0A3740AF040
:1024B500A374A0F0A3740CF07BFF7A2479C60213F1
:0124C500BB5B
:101C7000900810E4F0A3F0A3F0FFEF75F003A424A4
:101C80003BF582E4340AF583E4F0A3F0A3F00FEF10
:101C9000B40DE79010A27401F0A37408F0A37413BC
:101CA000F0A37401F0A37408F0A3742BF0E4FF9088
:101CB00010A5E0FBA3E0FAA3E0F9C003C002C00155
:101CC0009010A2E0FBA3E0FAA3E0F9900003120356
:101CD000999010A3E475F0181200A09010A6E47576
:101CE000F0181200A00FEFB40BC57B007A0079004A
:101CF000C003C002C0019010A2E0FBA3E0FAA3E081
:101D0000F99000031203999009337401F0A3740849
:051D1000F0A37413F0C4
:011D150022AB
:101E5B00C2AF900A36E06003021EE390080FE070F9
:101E6B007790080EE02436F582E43409F583E0FF21
:101E7B0024A0F582E4340CF583E02436F582E434B7
:101E8B0009F583E0FEEF33333354F8FFEE2FFF7881
:101E9B0016F618E66F604108E675F003A4243BF5CF
:101EAB0082E4340AF583E0FBA3E0FAA3E0780EA604
:101EBB000308A60208F6900A63E0FCA3E0FDA3E08A
:101ECB00FEA3E02401FFE43EFEE43DFDE43CFC9078
:0A1EDB000A631202C4122065D2AFA0
:011EE50022DA
:1024C600C2AF78111202ACEF2401FFE43EFEE43DF8
:1024D600FDE43CFC78111202B8D2AF12257A80E0F6
:0E0740009010ADEFF0A3EBF0A3EAF0A3E9F008
:10074E00C2AF900933E0F9A3E0FAA3E09010BFC95D
:10075E00F0A3EAF0A3E9F09010BFE0FBA3E0FAA348
:10076E00E04A4B70030209CC9010BFA3A3E0F990AE
:10077E000003120369900933EBF0A3EAF0A3E9F04A
:10078E00D2AF9010AEE0FBA3E0FAA3E0F9C003C035
:10079E0002C0019010BFE0FBA3E0FAA3E0F9120340
:1007AE001A9010ADE0FF9010BFE0FBA3E0FAA3E0BB
:1007BE00F9900012EF12007E900011E412007E906C
:1007CE00000FE4F5F01201519010BAE0F9A3E0FA2F
:1007DE00A3E09010BAC9F0A3EAF0A3E9F09010B626
:1007EE00E0FCA3E0FDA3E0FEA3E0FF9010B6120232
:1007FE00C49010B1E0F9A3E0FAA3E09010B1C9F0F3
:10080E00A3EAF0A3E9F09010BDE0FFA3E09010BDC5
:10081E00CFF0A3EFF09010B4E0FFA3E09010B4CFB0
:10082E00F0A3EFF09010BFE0FBA3E0FAA3E0F99085
:10083E000017E412007E9010ADE0FF131313541F47
:10084E0090001412007E90001412003F2498F5823E
:10085E00E4340AF583E090001612007EEF54079000
:10086E00001312007E90001312003F2498F582E4CC
:10087E00340AF583E090001512007E7B007A007931
:10088E0000C003C002C0019010BFE0FBA3E0FAA3BA
:10089E00E0F99000091203997B007A007900C003F9
:1008AE00C002C0019010BFE0FBA3E0FAA3E0F990F4
:1008BE00000C1203999010BFE0FBA3E0FAA3E0F93D
:1008CE001223F09010BFE0FBA3E0FAA3E0F912238D
:1008DE0092C2AF9010BFE0FBA3E0FAA3E0F9901034
:1008EE00ADE075F003A4243BF582E4340AF583EB06
:1008FE00F0A3EAF0A3E9F0900810E0FBA3E0FAA35E
:10090E00E0F9C003C002C0019010BFE0FBA3E0FA03
:10091E00A3E0F99000031203997B007A007900C0DE
:10092E0003C002C0019010BFE0FBA3E0FAA3E0F900
:10093E00900006120399900810E0FBA3E0FAA3E0E2
:10094E004A4B60229010BFE0FBA3E0FAA3E0F9C08F
:10095E0003C002C001900810E0FBA3E0FAA3E0F987
:10096E009000061203999010BFE0F9A3E0FAA3E0FD
:10097E00900810C9F0A3EAF0A3E9F090080EE0FF8A
:10098E009010BFE0FBA3A3E0F990001612003FFE0B
:10099E00EF4E90080EF090001412003F24A0F58246
:1009AE00E4340CF583C083C082E0FF900015120082
:1009BE003FFEEF4ED082D083F0D2AF7F0022D2AF77
:0209CE007F4662
:0109D0002204
:0B18EE009010E4EBF0A3EAF0A3E9F097
:1018F900900A36E0D3940040077B007A00790022F1
:10190900C2AF900A94E0F9A3E0FAA3E09010E7C906
:10191900F0A3EAF0A3E9F0900A94E0FBA3A3E04A5C
:101929004B6018900A94A3A3E0F99000041203698C
:10193900900A94EBF0A3EAF0A3E9F0D2AF9010E794
:10194900E0FBA3E0FAA3E04A4B604E9010E7A3A3A3
:10195900E0F9740112006C9010E7E0FBA3E0FAA330
:10196900E0F9900002E4F5F01201519010E4E0FB77
:10197900A3E0FAA3E0F9C003C002C001A3E0FBA3FE
:10198900E0FAA3E0F99000041203999010E7E0FB54
:10199900A3E0FAA3E0F912231A9010E7E0FBA3E011
:0419A900FAA3E0F9C4
:0119AD002217
:0B0C22009010CEEBF0A3EAF0A3E9F085
:100C2D00900A36E0D3940040109010D3E0FBA3E07F
:100C3D00FAA3E0F97402020D7CC2AF9010CEE0FB76
:100C4D00A3E0FAA3E0F99000041203699010D6EB2B
:100C5D00F0A3EAF0A3E9F09010D6E0FBA3E0FAA32D
:100C6D00E04A4B601D7B007A007900C003C002C0D2
:100C7D00019010CEE0FBA3E0FAA3E0F9900004028E
:100C8D000D3F780B860308E6FA08E62411F9E43ADD
:100C9D00FA120026440212006CAF05780B86030889
:100CAD00E6FA08E6F990000FEC8FF0120151901062
:100CBD00CEE0FBA3E0FAA3E0F91214B7D2AF121EF7
:100CCD005BC2AF780B860308E6FA08E6F990000CD4
:100CDD001203699010D6EBF0A3EAF0A3E9F090109F
:100CED00D6E0FBA3E0FAA3E04A4B60667B007A00F6
:100CFD007900C003C002C001780B860308E6FA082C
:100D0D00E6F990000C120399780B860308E6FA08B1
:100D1D00E6F9900011E412007E7B007A007900C0A4
:100D2D0003C002C001780B860308E6FA08E6F990C5
:100D3D000009120399D2AF9010D3E0FBA3E0FAA300
:100D4D00E0F9E412006C9010D6E0FBA3E0FAA3E00A
:100D5D00F9229010CEE0FBA3E0FAA3E0F91219AE50
:100D6D00D2AF9010D3E0FBA3E0FAA3E0F9740A121E
:080D7D00006C7B007A00790094
:010D8500224B
:101EE6009010EAEBF0A3EAF0A3E9F0C2AF9000018C
:101EF60012003F602F9010EDE0F9A3E0FAA3E09006
:101F060010C5C9F0A3EAF0A3E9F0A37402F090109B
:101F1600EAE0FBA3E0FAA3E0F9120EE3D2AF121E49
:101F26005B7F00229010EAE0FBA3E0FAA3E0F990C1
:101F36000004120369E94A4B6005D2AF7F14229070
:101F460010EDE0FBA3E0FAA3E0F9C003C002C00174
:101F56009010EAE0FBA3E0FAA3E0F9900004120374
:061F660099D2AF7F0022BA
:0B13BB009010A2EBF0A3EAF0A3E9F011
:1013C600C2AF9010ABE0FF75F003A4243BF582E4B6
:1013D600340AF583E0FBA3E0FAA3E04A4B6003027C
:1013E60014B27901EF75F003A4243BF582E4340AC4
:1013F600F583E4F0A3F0A304F0D2AF90FFFE12034E
:10140600F2E4F0A3F09010A8E0FBA3E0FAA3E0F961
:1014160090FFFD1203F2EBF0A3EAF0A3E9F09010BF
:10142600A5E0FBA3E0FAA3E0F990FFFD1203F2EBBF
:10143600F0A3EAF0A3E9F09010A2E0FBA3E0FAA380
:10144600E0F91209D19010B1E4F0A3F0A3F0A3F0F3
:10145600A3F0A31202E9000000009010BAE4F0A382
:10146600F0A3F0A3F0A3F09010ABE0FF12074090BA
:1014760010ACEFF07015C2AF900A97E004F0D2AF4F
:10148600780AE6B40120121E5B801BC2AF9010AB37
:10149600E075F003A4243BF582E4340AF583E4F016
:1014A600A3F0A3F0D2AF9010ACE0FF22D2AF7F281A
:0114B6002213
:050492009010A2EFF044
:10049700900A36E0D3940040037F3F22C2AF90100A
:1004A700A2E0B4FF14780B860308E6FA08E6F99091
:1004B700001212003F9010A2F09010A2E075F00316
:1004C700A4243BF582E4340AF583E0F9A3E0FAA318
:1004D700E09010A6C9F0A3EAF0A3E9F09010A6E017
:1004E700FBA3E0FAA3E04A4B700302073B9010A678
:1004F700A3A3E0F990001412003F24A0F582E4348E
:100507000CF583C083C082E0FF90001512003FF412
:10051700FEEF5ED082D083F0701390080EE0FF905C
:10052700001612003FF4FEEF5E90080EF09010A642
:10053700E0FBA3E0FAA3E0F9900009120369901029
:10054700A3EBF0A3EAF0A3E9F09010A3E0FBA3E08C
:10055700FAA3E04A4B70030205E7A3E0FBA3E0FA26
:10056700A3E0F990001412003FFF7E009010A3E073
:10057700FBA3E0FAA3E02407F9E43AFAE92FF9EE3E
:100587003AFAC003C002C001120026FF9010A6E08D
:10059700FBA3E0FAA3E0F990001512003FF45FD047
:1005A70001D002D00312006C70369010A3E0FBA3B9
:1005B700E0FAA3E02401F9E43AFAC003C002C0015B
:1005C700120026FF9010A6E0FBA3E0FAA3E0F99043
:1005D700001612003FF45FD001D002D00312006C66
:1005E7009010A6E0FBA3E0FAA3E0F990000FE4F572
:1005F700F0120151900011E412007E90080FE0C341
:1006070094FF5003E004F0D2AF12257BC2AF9008ED
:100617000FE0D394004003E014F09010A6E0FBA392
:10062700E0FAA3E0F91223C1900A97E014F09010C2
:10063700A2E075F003A4243BF582E4340AF583E4D1
:10064700F0A3F0A3F09010A6E0FBA3E0FAA3E0F973
:10065700900006120369E94A4B703EFBFAF9C003A2
:10066700C002C0019010A6E0FBA3E0FAA3E0F99056
:1006770000031203699000061203999010A6E0FB8D
:10068700A3E0FAA3E0F9900003120369900810EBC6
:10069700F0A3EAF0A3E9F0805C9010A6E0FBA3E0EA
:1006A700FAA3E0F9900003120369C003C002C00176
:1006B7009010A6E0FBA3E0FAA3E0F990000612036E
:1006C700699000031203999010A6E0FBA3E0FAA338
:1006D700E0F9900006120369C003C002C001901040
:1006E700A6E0FBA3E0FAA3E0F990000312036990E8
:1006F7000006120399900933E0FBA3E0FAA3E0F99F
:10070700C003C002C0019010A6E0FBA3E0FAA3E07B
:10071700F99000031203999010A6E0F9A3E0FAA359
:10072700E0900933C9F0A3EAF0A3E9F0D2AF121EB3
:080737005B7F0022D2AF7F3C82
:01073F002297
:1020CB00EFB4FF16C2AF780B860308E6FA08E6F901
:1020DB0090001712003FD2AFFF22C2AFEF75F00393
:1020EB00A4243BF582E4340AF583E0F9A3E0FAA3D8
:1020FB00E09010FDC9F0A3EAF0A3E9F09010FDE029
:10210B00FBA3E0FAA3E04A4B60139010FDA3A3E0FE
:10211B00F9900017743E12007EE4FE80027E0BD213
:03212B00AFAF064D
:01212E00228E
:101A6C00C2AFEF75F003A4243BF582E4340AF5838E
:101A7C00E0F9A3E0FAA3E0901100C9F0A3EAF0A307
:101A8C00E9F0901100E0FBA3E0FAA3E04A4B7005EB
:101A9C00D2AF7F6422901100E0FBA3E0FAA3E0F93F
:101AAC0090001112003F30E367E92411F9E43AFA8F
:101ABC0012002654F712006C7051901100E0FBA339
:101ACC00E0FAA3E0F990000F1200CC45F0703C90C6
:101ADC00080EE0FF90001612003FFEEF4E90080E2D
:101AEC00F090001412003F24A0F582E4340CF5832E
:101AFC00C083C082E0FF90001512003FFEEF4ED075
:101B0C0082D083F0D2AF121E5B8002D2AF7F002254
:041B1C00D2AF7F6560
:011B200022A2
:10168F00C2AFEFB4FF13780B860308E6FA08E6F94A
:10169F0090001212003FFF8013780B860308E6FAC2
:1016AF0008E6F990001212003FB507089010F07489
:1016BF0001F08005E49010F0F0EF75F003A4243BE7
:1016CF00F582E4340AF583E0F9A3E0FAA3E0901081
:1016DF00F1C9F0A3EAF0A3E9F09010F1E0FBA3E069
:1016EF00FAA3E04A4B7005D2AF7F5A229010F1E077
:1016FF00FBA3E0FAA3E0F990001412003F24A0F539
:10170F0082E4340CF583C083C082E0FF9000151291
:10171F00003FF4FEEF5ED082D083F0701390080E7E
:10172F00E0FF90001612003FF4FEEF5E90080EF0FF
:10173F009010F1E0FBA3E0FAA3E02411F9E43AFAE8
:10174F00120026440812006CD2AF9010F0E0B401E2
:06175F0003121E5B7F0077
:011765002261
:101FEE00AD07AC06D3ED9400EC94004069C2AF7817
:101FFE000B860308E6FA08E6F990001412003F2457
:10200E00A0F582E4340CF583C083C082E0FF780B28
:10201E00860308E6FA08E6F990001512003FF4FE72
:10202E00EF5ED082D083F0701390080EE0FF900028
:10203E001612003FF4FEEF5E90080EF0AF05780B1F
:10204E00860308E6FA08E6F990000FEC8FF012010D
:07205E0051D2AF121E5B22FC
:0A0D86009010DBEBF09010D9EFF0B5
:100D9000D39400501EED940050199010DBE09400A5
:100DA00050119010DDE094009010DCE094005003AE
:100DB000020EE0EDD3943B40037F51229010DBE024
:100DC000D3943B40037F5222D39010DDE094E79010
:100DD00010DCE0940340037F5322AF057E007C00CB
:100DE0007D3C120423C004A905AA06AB079010D9C4
:100DF000E0FF7E007C0E7D10120423D000EF2BFB61
:100E0000EE3AFAED39F9EC38F89010DBE0FFE4FC4B
:100E1000FDFEEB2FFFEE3AFEED39FDEC38FCE47BF6
:100E200032FAF9F812017EC004C005C006C007906E
:100E300010DCE0FEA3E0FFEF240AFFE43EFEE43313
:100E4000FDE433FCE47B32FAF9F812017EE47BE83E
:100E50007A03F9F8120209D003D002D001D000EBD6
:100E60002FFFEA3EFEE93DFDE83CFC9010DE120259
:100E7000C4E4FBFA7901F89010DEE0FCA3E0FDA3E6
:100E8000E0FEA3E0FF1202099010E2EEF0A3EFF003
:100E90009010DEA3A3E0FEA3E0FFE4FDFC9010DED3
:100EA0001202C49010DEA3A3E0FEA3E0FF121FEE27
:100EB000D39010E3E094009010E2E09400401E7F95
:100EC000007E80121FEE7F007E80121FEE9010E3E6
:100ED000E024FFF09010E2E034FFF080D37F0022A6
:020EE0007F543D
:010EE20022ED
:10253B00C2AF900A37E0FCA3E0FDA3E0FEA3E0FFEF
:02254B00D2AF0D
:01254D00226B
:0B255A00C2AF900A371202C4D2AF22B9
:1024E6000A0A0A0A0A0A0A0A0A0A0A0A0A0A0A0A46
:0A24F6000A0A0A0A0A0A0A0A0A0082
:0213B800C180F2
:1025000053890F438920758DFD758BFD759850E4B7
:05251000F587D28E22C8
:10235B009000067401F0A37400F0A3743EF0F9A38F
:10236B007401F0A37400F0A3E9F09000007401F085
:10237B00A37400F0A3740CF0F9A37401F0A3740020
:07238B00F0A3E9F0D2AC223F
:06103F0090FFFD1203F218
:1010450030997CC299900009E0FBA3E0FAA3E0F98E
:10105500C003C002C001900006E0FBA3E0FAA3E0D4
:10106500F9D082D083D0E06B7008E965827003EA1D
:1010750065837005D20002117C900009E0FBA3E0B6
:10108500FAA3E0F9120026F59990000AE475F0013B
:101095001200A0900009E0FBA3E0FAA3E0F97401B7
:1010A50090080E6B7008E965827003EA6583700F1E
:1010B5007B0190000904F0A37400F0A3743EF020B6
:1010C500980302117CC298900000E0F9A3E0FAA30E
:1010D500E0850883850982C9F0A3EAF0A3E9F085D4
:1010E5000883850982A3E475F0011200A0850883B1
:1010F500850982E0FBA3E0FAA3E0F9740190003EC4
:101105006B7008E965827003EA6583701085088352
:1011150085098204F0A37400F0A3740CF090000319
:10112500E0FBA3E0FAA3E0F9C003C002C001850813
:1011350083850982E0FBA3E0FAA3E0F9D082D0839E
:10114500D0E06B7008E965827003EA6583602890DA
:101155000000E0FBA3E0FAA3E0F9E59912006C8535
:101165000883850982E0F9A3E0FAA3E0900000C9AD
:07117500F0A3EAF0A3E9F08A
:06117C009000030203F2E3
:101B210090FFFD1203F2EBF0A3EAF0A3E9F0C2AFDC
:101B3100900003E0FBA3E0FAA3E0F9C003C002C0F8
:101B410001900000E0FBA3E0FAA3E0F9D082D0838A
:101B5100D0E06B7008E965827003EA65837005D295
:101B6100AFC3805A900003E0FBA3E0FAA3E0F912AF
:101B71000026FF850883850982E0FBA3E0FAA3E044
:101B8100F9EF12006C900004E475F0011200A090CE
:101B91000003E0FBA3E0FAA3E0F9740190003E6BBF
:101BA1007008E965827003EA6583700F7B0190001C
:101BB1000304F0A37400F0A3740CF0D2AFD3C0D02F
:091BC1009000031203F2D0D022BF
:0E15B10090FFFF1203F2EFF090FFFD1203F225
:1015BF00C2AF900006E0F9A3E0FAA3E085088385A7
:1015CF000982C9F0A3EAF0A3E9F0850883850982AF
:1015DF00A3E475F0011200A0850883850982E0FB62
:1015EF00A3E0FAA3E0F9740190080E6B7008E965A7
:1015FF00827003EA6583701085088385098204F081
:10160F00A37400F0A3743EF0900009E0FBA3E0FA8E
:10161F00A3E0F9C003C002C001850883850982E0F9
:10162F00FBA3E0FAA3E0F9D082D083D0E06B70087F
:10163F00E965827003EA65837004D2AF803C900045
:10164F0003120416E0FF900006E0FBA3E0FAA3E00C
:10165F00F9EF12006C850883850982E0F9A3E0FA9F
:10166F00A3E0900006C9F0A3EAF0A3E9F0D2AF30EF
:0A167F000008C2AFC200D2AFD2993A
:061689009000040203F2D0
:10182C0090FFFD1203F2EBF0A3EAF0A3E9F090FFB6
:04183C00FC1203F2A5
:10184000850883850982E4F0A3F0850883850982F1
:10185000E0FEA3E0FFC39464EE6480948040030242
:1018600018E8900004120416E0FBA3E0FAA3E0F9E4
:101870008F828E8312003FFF900003120416EFF058
:10188000900003120416E0FF7002805CEFB40A09B6
:101890007F0A1215B17F0D803C900003120416E000
:1018A000B4092A850883850982A3A3E4F085088307
:1018B000850982A3A3E0C39404501D7F201215B1B3
:1018C000850883850982A3A3E004F080E0900003EB
:1018D000120416E0FF1215B1850883850982E475AC
:0818E000F0011200A002184AF9
:0618E8009000070203F26C
:09256F007BFF7A2479E602182CA6
:101766000A09090909092A2A2A2A2A2A2A2A2A2A98
:101776002A2A2A2A2A2A2A2A2A2A2A2A2A2A2A2AC3
:101786002A2A2A2A2A2A0A0009090909092A2020B6
:1017960020202020202020202075432F4F532D4924
:1017A6004920202020202020202020202A0A00094D
:1017B600090909092A20202020205468652052653D
:1017C600616C2D54696D65204B65726E656C2020C9
:1017D6002020202A0A0009090909092A2020202098
:1017E600202075434F535F353120666F72204D437D
:1017F600532D35312020202020202A0A00090909EE
:1018060009092A2A2A2A2A2A2A2A2A2A2A2A2A2A74
:101816002A2A2A2A2A2A2A2A2A2A2A2A2A2A2A2A22
:061826002A2A0A0A0A004A
:0C254E0012000E12251512250002235B5E
:10244D007BFF7A17796612182C7BFF7A17798E121B
:10245D00182C7BFF7A1779B512182C7BFF7A177918
:0D246D00DC12182C7BFF7A18790302182C62
:10247A0012254E9010A5E4F0A3F0A3F0A304F0A354
:10248A00740EF0A374A2F0A37402F07BFF7A217990
:0B249A008B1213BB121F6CE4FEFF222C
:10218B0090FFFD1203F2EBF0A3EAF0A3E9F0850850
:10219B0083850982E0F9A3E0FAA3E085088385092A
:1021AB0082C9F0A3EAF0A3E9F0D2A99010A5E4F05C
:1021BB00A3F0A3F0A304F0A3740CF0A374A2F0A3F8
:1021CB00740AF07BFF7A2279D31213BB7FFF1204C0
:0721DB00929000030203F2E1
:1022D30090FFFD1203F2EBF0A3EAF0A3E9F0850807
:1022E30083850982E0F9A3E0FAA3E08508838509E1
:1022F30082C9F0A3EAF0A3E9F012253BE47B0AFAD2
:10230300F9F8C312029B70F1C2AFB2B4D2AFFFFEB1
:07231300FDFC12255A80E2D7
:101DDB0002247AE493A3F8E493A34003F68001F280
:101DEB0008DFF48029E493A3F85407240CC8C33309
:101DFB00C4540F4420C8834004F456800146F6DFD8
:101E0B00E4800B01020408102040809012A9E47EAC
:101E1B00019360BCA3FF543F30E509541FFEE493CC
:101E2B00A360010ECF54C025E060A840B8E493A393
:101E3B00FAE493A3F8E493A3C8C582C8CAC583CABE
:101E4B00F0A3C8C582C8CAC583CADFE9DEE780BE76
:0113BA000032
:10002600BB010689828A83E0225002E722BBFE02D8
:09003600E32289828A83E493220B
:10003F00BB010CE58229F582E5833AF583E0225076
:10004F0006E92582F8E622BBFE06E92582F8E222C0
:0D005F00E58229F582E5833AF583E49322DA
:10006C00BB010689828A83F0225002F722BBFE0173
:02007C00F3226D
:10007E00F8BB010DE58229F582E5833AF583E8F0B8
:10008E00225006E92582C8F622BBFE05E92582C864
:02009E00F2224C
:1000A000C5F0F8A3E028F0C5F0F8E58215827002EB
:0600B0001583E038F02288
:1000B600A3F8E0C5F025F0F0E582158270021583FD
:0600C600E0C838F0E8225A
:1000CC00BB0110E58229F582E5833AF583E0F5F072
:1000DC00A3E0225009E92582F886F008E622BBFE4F
:1000EC000AE92582F8E2F5F008E222E5832AF58395
:0800FC00E993F5F0A3E993225A
:10010400BB010DC58229C582C5833AC5830200A0FF
:100114005011C58229F808E5F026F618F5F0E582B5
:1001240036F622BBFE11C58229F808E225F0F5F067
:10013400F218E23582F222F8E58229F582E5832A73
:0D014400F58374019325F0F5F0E493382263
:10015100F8BB0111E58229F582E5833AF583E8F0E0
:10016100E5F0A3F0225009E92582C8F608A6F0229D
:0D017100BBFE09E92582C8F2E5F008F22284
:10017E00E88FF0A4CC8BF0A42CFCE98EF0A42CFC20
:10018E008AF0EDA42CFCEA8EF0A4CDA8F08BF0A49E
:10019E002DCC3825F0FDE98FF0A42CCD35F0FCEBFD
:1001AE008EF0A4FEA9F0EB8FF0A4CFC5F02ECD39C2
:0F01BE00FEE43CFCEAA42DCE35F0FDE43CFC222F
:1001CD0075F008758200EF2FFFEE33FECD33CDCCE9
:1001DD0033CCC58233C5829BED9AEC99E58298406C
:1001ED000CF582EE9BFEED9AFDEC99FC0FD5F0D649
:1001FD00E4CEFBE4CDFAE4CCF9A88222B800C1B973
:10020D000059BA002DEC8BF084CFCECDFCE5F0CBB0
:10021D00F97818EF2FFFEE33FEED33FDEC33FCEBE9
:10022D0033FB10D703994004EB99FB0FD8E5E4F9A4
:10023D00FA227818EF2FFFEE33FEED33FDEC33FC91
:10024D00C933C910D7059BE99A4007EC9BFCE99A85
:10025D00F90FD8E0E4C9FAE4CCFB2275F010EF2FCA
:10026D00FFEE33FEED33FDCC33CCC833C810D707CA
:10027D009BEC9AE899400AED9BFDEC9AFCE899F805
:0E028D000FD5F0DAE4CDFBE4CCFAE4C8F92298
:10029B00EB9FF5F0EA9E42F0E99D42F0E89C45F0B9
:0102AB002230
:0C02AC00E6FC08E6FD08E6FE08E6FF227E
:0C02B800ECF608EDF608EEF608EFF62272
:0C02C400ECF0A3EDF0A3EEF0A3EFF022AD
:1002D000D083D082E493F608740193F608740293F5
:0902E000F608740393F67404732C
:1002E900A8828583F0D083D0821203001203001202
:1002F9000300120300E473E493A3C583C5F0C58327
:10030900C8C582C8F0A3C583C5F0C583C8C582C85E
:0103190022C1
:10031A00BB011A89828A83D0F0D0E0F8D0E0F9D004
:10032A00E0FAD0E0FBE8C0E0C0F002046B5016E946
:10033A00F8D083D082D0E0F9D0E0FAD0E0FBC082D6
:10034A00C083020459BBFE16E9F8D083D082D0E0FC
:0F035A00F9D0E0FAD0E0FBC082C08302047D221C
:10036900BB010DE58229F582E5833AF58302046232
:100379005007E92582F8020450BBFE07E92582F8F7
:10038900020474E58229F582E5833AF5830204863D
:10039900BB0120E58229F582E5833AF583D0F0D0C7
:1003A900E0F8D0E0F9D0E0FAD0E0FBE8C0E0C0F036
:1003B90002046B5018E92582F8D083D082D0E0F985
:1003C900D0E0FAD0E0FBC082C083020459BBFE181A
:1003D900E92582F8D083D082D0E0F9D0E0FAD0E0E4
:0903E900FBC082C08302047D22E6
:1003F200E5092582F582E5083583F583B50804858C
:1004020082092210AF06858209F50822858209F544
:0404120008D2AF223B
:0D041600E5092582F582E5083583F583228E
:10042300EC8EF0A4CCC5F0CCCDF8EFA4CEC5F02D66
:10043300FDE43CFCE8A42EC8C5F03DFDE43CFCEF24
:0D044300A4FFE5F028FEE43DFDE43CFC22B2
:09045000E6FB08E6FA08E6F922D1
:09045900EBF608EAF608E9F622C8
:09046200E0FBA3E0FAA3E0F9229B
:09046B00EBF0A3EAF0A3E9F02292
:09047400E2FB08E2FA08E2F922B9
:09047D00EBF208EAF208E9F222B0
:0C048600E493FB740193FA740293F922D2
:00000001FF
